{
  "_format": "hh-sol-artifact-1",
  "contractName": "NFT",
  "sourceName": "contracts/NFT.sol",
  "abi": [
    {
      "inputs": [
        {
          "internalType": "address",
          "name": "marketPlaceAddress",
          "type": "address"
        }
      ],
      "stateMutability": "nonpayable",
      "type": "constructor"
    },
    {
      "inputs": [
        {
          "internalType": "address",
          "name": "sender",
          "type": "address"
        },
        {
          "internalType": "uint256",
          "name": "tokenId",
          "type": "uint256"
        },
        {
          "internalType": "address",
          "name": "owner",
          "type": "address"
        }
      ],
      "name": "ERC721IncorrectOwner",
      "type": "error"
    },
    {
      "inputs": [
        {
          "internalType": "address",
          "name": "operator",
          "type": "address"
        },
        {
          "internalType": "uint256",
          "name": "tokenId",
          "type": "uint256"
        }
      ],
      "name": "ERC721InsufficientApproval",
      "type": "error"
    },
    {
      "inputs": [
        {
          "internalType": "address",
          "name": "approver",
          "type": "address"
        }
      ],
      "name": "ERC721InvalidApprover",
      "type": "error"
    },
    {
      "inputs": [
        {
          "internalType": "address",
          "name": "operator",
          "type": "address"
        }
      ],
      "name": "ERC721InvalidOperator",
      "type": "error"
    },
    {
      "inputs": [
        {
          "internalType": "address",
          "name": "owner",
          "type": "address"
        }
      ],
      "name": "ERC721InvalidOwner",
      "type": "error"
    },
    {
      "inputs": [
        {
          "internalType": "address",
          "name": "receiver",
          "type": "address"
        }
      ],
      "name": "ERC721InvalidReceiver",
      "type": "error"
    },
    {
      "inputs": [
        {
          "internalType": "address",
          "name": "sender",
          "type": "address"
        }
      ],
      "name": "ERC721InvalidSender",
      "type": "error"
    },
    {
      "inputs": [
        {
          "internalType": "uint256",
          "name": "tokenId",
          "type": "uint256"
        }
      ],
      "name": "ERC721NonexistentToken",
      "type": "error"
    },
    {
      "anonymous": false,
      "inputs": [
        {
          "indexed": true,
          "internalType": "address",
          "name": "owner",
          "type": "address"
        },
        {
          "indexed": true,
          "internalType": "address",
          "name": "approved",
          "type": "address"
        },
        {
          "indexed": true,
          "internalType": "uint256",
          "name": "tokenId",
          "type": "uint256"
        }
      ],
      "name": "Approval",
      "type": "event"
    },
    {
      "anonymous": false,
      "inputs": [
        {
          "indexed": true,
          "internalType": "address",
          "name": "owner",
          "type": "address"
        },
        {
          "indexed": true,
          "internalType": "address",
          "name": "operator",
          "type": "address"
        },
        {
          "indexed": false,
          "internalType": "bool",
          "name": "approved",
          "type": "bool"
        }
      ],
      "name": "ApprovalForAll",
      "type": "event"
    },
    {
      "anonymous": false,
      "inputs": [
        {
          "indexed": false,
          "internalType": "uint256",
          "name": "_fromTokenId",
          "type": "uint256"
        },
        {
          "indexed": false,
          "internalType": "uint256",
          "name": "_toTokenId",
          "type": "uint256"
        }
      ],
      "name": "BatchMetadataUpdate",
      "type": "event"
    },
    {
      "anonymous": false,
      "inputs": [
        {
          "indexed": false,
          "internalType": "uint256",
          "name": "_tokenId",
          "type": "uint256"
        }
      ],
      "name": "MetadataUpdate",
      "type": "event"
    },
    {
      "anonymous": false,
      "inputs": [
        {
          "indexed": true,
          "internalType": "address",
          "name": "to",
          "type": "address"
        },
        {
          "indexed": true,
          "internalType": "uint256",
          "name": "tokenId",
          "type": "uint256"
        },
        {
          "indexed": false,
          "internalType": "string",
          "name": "uri",
          "type": "string"
        },
        {
          "indexed": false,
          "internalType": "address",
          "name": "marketPlaceAddress",
          "type": "address"
        }
      ],
      "name": "TokenMinted",
      "type": "event"
    },
    {
      "anonymous": false,
      "inputs": [
        {
          "indexed": true,
          "internalType": "address",
          "name": "from",
          "type": "address"
        },
        {
          "indexed": true,
          "internalType": "address",
          "name": "to",
          "type": "address"
        },
        {
          "indexed": true,
          "internalType": "uint256",
          "name": "tokenId",
          "type": "uint256"
        }
      ],
      "name": "Transfer",
      "type": "event"
    },
    {
      "inputs": [
        {
          "internalType": "address",
          "name": "to",
          "type": "address"
        },
        {
          "internalType": "uint256",
          "name": "tokenId",
          "type": "uint256"
        }
      ],
      "name": "approve",
      "outputs": [],
      "stateMutability": "nonpayable",
      "type": "function"
    },
    {
      "inputs": [
        {
          "internalType": "address",
          "name": "owner",
          "type": "address"
        }
      ],
      "name": "balanceOf",
      "outputs": [
        {
          "internalType": "uint256",
          "name": "",
          "type": "uint256"
        }
      ],
      "stateMutability": "view",
      "type": "function"
    },
    {
      "inputs": [
        {
          "internalType": "uint256",
          "name": "tokenId",
          "type": "uint256"
        }
      ],
      "name": "getApproved",
      "outputs": [
        {
          "internalType": "address",
          "name": "",
          "type": "address"
        }
      ],
      "stateMutability": "view",
      "type": "function"
    },
    {
      "inputs": [
        {
          "internalType": "uint256",
          "name": "tokenId",
          "type": "uint256"
        }
      ],
      "name": "getTokenCreatorById",
      "outputs": [
        {
          "internalType": "address",
          "name": "",
          "type": "address"
        }
      ],
      "stateMutability": "view",
      "type": "function"
    },
    {
      "inputs": [],
      "name": "getTokenIdCounter",
      "outputs": [
        {
          "internalType": "uint256",
          "name": "",
          "type": "uint256"
        }
      ],
      "stateMutability": "view",
      "type": "function"
    },
    {
      "inputs": [],
      "name": "getTokensCreatedByMe",
      "outputs": [
        {
          "internalType": "uint256[]",
          "name": "",
          "type": "uint256[]"
        }
      ],
      "stateMutability": "view",
      "type": "function"
    },
    {
      "inputs": [],
      "name": "getTokensOwnedByMe",
      "outputs": [
        {
          "internalType": "uint256[]",
          "name": "",
          "type": "uint256[]"
        }
      ],
      "stateMutability": "view",
      "type": "function"
    },
    {
      "inputs": [
        {
          "internalType": "address",
          "name": "owner",
          "type": "address"
        },
        {
          "internalType": "address",
          "name": "operator",
          "type": "address"
        }
      ],
      "name": "isApprovedForAll",
      "outputs": [
        {
          "internalType": "bool",
          "name": "",
          "type": "bool"
        }
      ],
      "stateMutability": "view",
      "type": "function"
    },
    {
      "inputs": [
        {
          "internalType": "string",
          "name": "uri",
          "type": "string"
        }
      ],
      "name": "mintToken",
      "outputs": [],
      "stateMutability": "nonpayable",
      "type": "function"
    },
    {
      "inputs": [],
      "name": "name",
      "outputs": [
        {
          "internalType": "string",
          "name": "",
          "type": "string"
        }
      ],
      "stateMutability": "view",
      "type": "function"
    },
    {
      "inputs": [
        {
          "internalType": "uint256",
          "name": "tokenId",
          "type": "uint256"
        }
      ],
      "name": "ownerOf",
      "outputs": [
        {
          "internalType": "address",
          "name": "",
          "type": "address"
        }
      ],
      "stateMutability": "view",
      "type": "function"
    },
    {
      "inputs": [
        {
          "internalType": "address",
          "name": "from",
          "type": "address"
        },
        {
          "internalType": "address",
          "name": "to",
          "type": "address"
        },
        {
          "internalType": "uint256",
          "name": "tokenId",
          "type": "uint256"
        }
      ],
      "name": "safeTransferFrom",
      "outputs": [],
      "stateMutability": "nonpayable",
      "type": "function"
    },
    {
      "inputs": [
        {
          "internalType": "address",
          "name": "from",
          "type": "address"
        },
        {
          "internalType": "address",
          "name": "to",
          "type": "address"
        },
        {
          "internalType": "uint256",
          "name": "tokenId",
          "type": "uint256"
        },
        {
          "internalType": "bytes",
          "name": "data",
          "type": "bytes"
        }
      ],
      "name": "safeTransferFrom",
      "outputs": [],
      "stateMutability": "nonpayable",
      "type": "function"
    },
    {
      "inputs": [
        {
          "internalType": "address",
          "name": "operator",
          "type": "address"
        },
        {
          "internalType": "bool",
          "name": "approved",
          "type": "bool"
        }
      ],
      "name": "setApprovalForAll",
      "outputs": [],
      "stateMutability": "nonpayable",
      "type": "function"
    },
    {
      "inputs": [
        {
          "internalType": "bytes4",
          "name": "interfaceId",
          "type": "bytes4"
        }
      ],
      "name": "supportsInterface",
      "outputs": [
        {
          "internalType": "bool",
          "name": "",
          "type": "bool"
        }
      ],
      "stateMutability": "view",
      "type": "function"
    },
    {
      "inputs": [],
      "name": "symbol",
      "outputs": [
        {
          "internalType": "string",
          "name": "",
          "type": "string"
        }
      ],
      "stateMutability": "view",
      "type": "function"
    },
    {
      "inputs": [
        {
          "internalType": "uint256",
          "name": "tokenId",
          "type": "uint256"
        }
      ],
      "name": "tokenURI",
      "outputs": [
        {
          "internalType": "string",
          "name": "",
          "type": "string"
        }
      ],
      "stateMutability": "view",
      "type": "function"
    },
    {
      "inputs": [
        {
          "internalType": "address",
          "name": "from",
          "type": "address"
        },
        {
          "internalType": "address",
          "name": "to",
          "type": "address"
        },
        {
          "internalType": "uint256",
          "name": "tokenId",
          "type": "uint256"
        }
      ],
      "name": "transferFrom",
      "outputs": [],
      "stateMutability": "nonpayable",
      "type": "function"
    }
  ],
  "bytecode": "0x60806040523480156200001157600080fd5b5060405162002f2438038062002f24833981810160405281019062000037919062000183565b6040518060400160405280600681526020017f4e617468616e00000000000000000000000000000000000000000000000000008152506040518060400160405280600481526020017f4e484154000000000000000000000000000000000000000000000000000000008152508160009081620000b491906200042f565b508060019081620000c691906200042f565b505050600060078190555080600860006101000a81548173ffffffffffffffffffffffffffffffffffffffff021916908373ffffffffffffffffffffffffffffffffffffffff1602179055505062000516565b600080fd5b600073ffffffffffffffffffffffffffffffffffffffff82169050919050565b60006200014b826200011e565b9050919050565b6200015d816200013e565b81146200016957600080fd5b50565b6000815190506200017d8162000152565b92915050565b6000602082840312156200019c576200019b62000119565b5b6000620001ac848285016200016c565b91505092915050565b600081519050919050565b7f4e487b7100000000000000000000000000000000000000000000000000000000600052604160045260246000fd5b7f4e487b7100000000000000000000000000000000000000000000000000000000600052602260045260246000fd5b600060028204905060018216806200023757607f821691505b6020821081036200024d576200024c620001ef565b5b50919050565b60008190508160005260206000209050919050565b60006020601f8301049050919050565b600082821b905092915050565b600060088302620002b77fffffffffffffffffffffffffffffffffffffffffffffffffffffffffffffffff8262000278565b620002c3868362000278565b95508019841693508086168417925050509392505050565b6000819050919050565b6000819050919050565b6000620003106200030a6200030484620002db565b620002e5565b620002db565b9050919050565b6000819050919050565b6200032c83620002ef565b620003446200033b8262000317565b84845462000285565b825550505050565b600090565b6200035b6200034c565b6200036881848462000321565b505050565b5b8181101562000390576200038460008262000351565b6001810190506200036e565b5050565b601f821115620003df57620003a98162000253565b620003b48462000268565b81016020851015620003c4578190505b620003dc620003d38562000268565b8301826200036d565b50505b505050565b600082821c905092915050565b60006200040460001984600802620003e4565b1980831691505092915050565b60006200041f8383620003f1565b9150826002028217905092915050565b6200043a82620001b5565b67ffffffffffffffff811115620004565762000455620001c0565b5b6200046282546200021e565b6200046f82828562000394565b600060209050601f831160018114620004a7576000841562000492578287015190505b6200049e858262000411565b8655506200050e565b601f198416620004b78662000253565b60005b82811015620004e157848901518255600182019150602085019450602081019050620004ba565b86831015620005015784890151620004fd601f891682620003f1565b8355505b6001600288020188555050505b505050505050565b6129fe80620005266000396000f3fe608060405234801561001057600080fd5b50600436106101165760003560e01c80636352211e116100a2578063a22cb46511610071578063a22cb465146102f3578063b88d4fde1461030f578063c87b56dd1461032b578063dbfd4b981461035b578063e985e9c51461037957610116565b80636352211e1461024557806370a0823114610275578063867d3397146102a557806395d89b41146102d557610116565b80630a989d9c116100e95780630a989d9c146101b557806323b872dd146101d357806333eba49a146101ef57806342842e0e1461020b5780635ba377421461022757610116565b806301ffc9a71461011b57806306fdde031461014b578063081812fc14610169578063095ea7b314610199575b600080fd5b61013560048036038101906101309190611cf6565b6103a9565b6040516101429190611d3e565b60405180910390f35b6101536103bb565b6040516101609190611de9565b60405180910390f35b610183600480360381019061017e9190611e41565b61044d565b6040516101909190611eaf565b60405180910390f35b6101b360048036038101906101ae9190611ef6565b610469565b005b6101bd61047f565b6040516101ca9190611ff4565b60405180910390f35b6101ed60048036038101906101e89190612016565b610573565b005b6102096004803603810190610204919061219e565b610675565b005b61022560048036038101906102209190612016565b6107aa565b005b61022f6107ca565b60405161023c9190611ff4565b60405180910390f35b61025f600480360381019061025a9190611e41565b610976565b60405161026c9190611eaf565b60405180910390f35b61028f600480360381019061028a91906121e7565b610988565b60405161029c9190612223565b60405180910390f35b6102bf60048036038101906102ba9190611e41565b610a42565b6040516102cc9190611eaf565b60405180910390f35b6102dd610a7f565b6040516102ea9190611de9565b60405180910390f35b61030d6004803603810190610308919061226a565b610b11565b005b6103296004803603810190610324919061234b565b610b27565b005b61034560048036038101906103409190611e41565b610b44565b6040516103529190611de9565b60405180910390f35b610363610b56565b6040516103709190612223565b60405180910390f35b610393600480360381019061038e91906123ce565b610b60565b6040516103a09190611d3e565b60405180910390f35b60006103b482610bf4565b9050919050565b6060600080546103ca9061243d565b80601f01602080910402602001604051908101604052809291908181526020018280546103f69061243d565b80156104435780601f1061041857610100808354040283529160200191610443565b820191906000526020600020905b81548152906001019060200180831161042657829003601f168201915b5050505050905090565b600061045882610c55565b5061046282610cdd565b9050919050565b61047b8282610476610d1a565b610d22565b5050565b6060600061048c33610988565b905060008167ffffffffffffffff8111156104aa576104a9612073565b5b6040519080825280602002602001820160405280156104d85781602001602082028036833780820191505090505b509050600080600190505b6007548111610569573373ffffffffffffffffffffffffffffffffffffffff1661050c82610976565b73ffffffffffffffffffffffffffffffffffffffff1603610556578083838151811061053b5761053a61246e565b5b6020026020010181815250508180610552906124cc565b9250505b8080610561906124cc565b9150506104e3565b5081935050505090565b600073ffffffffffffffffffffffffffffffffffffffff168273ffffffffffffffffffffffffffffffffffffffff16036105e55760006040517f64a0ae920000000000000000000000000000000000000000000000000000000081526004016105dc9190611eaf565b60405180910390fd5b60006105f983836105f4610d1a565b610d34565b90508373ffffffffffffffffffffffffffffffffffffffff168173ffffffffffffffffffffffffffffffffffffffff161461066f578382826040517f64283d7b00000000000000000000000000000000000000000000000000000000815260040161066693929190612514565b60405180910390fd5b50505050565b60006001600754610686919061254b565b90506106923382610f4e565b61069c8183610f6c565b6106c9600860009054906101000a900473ffffffffffffffffffffffffffffffffffffffff166001610b11565b600760008154809291906106dc906124cc565b9190505550336009600083815260200190815260200160002060006101000a81548173ffffffffffffffffffffffffffffffffffffffff021916908373ffffffffffffffffffffffffffffffffffffffff160217905550803373ffffffffffffffffffffffffffffffffffffffff167fb482dc65b996e09096931a300ed4fd194d14a39ac92465a67eb2d3f09201130e84600860009054906101000a900473ffffffffffffffffffffffffffffffffffffffff1660405161079e92919061257f565b60405180910390a35050565b6107c583838360405180602001604052806000815250610b27565b505050565b6060600080600190505b6007548111610865573373ffffffffffffffffffffffffffffffffffffffff166009600083815260200190815260200160002060009054906101000a900473ffffffffffffffffffffffffffffffffffffffff1673ffffffffffffffffffffffffffffffffffffffff160361085257818061084e906124cc565b9250505b808061085d906124cc565b9150506107d4565b5060008167ffffffffffffffff81111561088257610881612073565b5b6040519080825280602002602001820160405280156108b05781602001602082028036833780820191505090505b509050600080600190505b600754811161096c573373ffffffffffffffffffffffffffffffffffffffff166009600083815260200190815260200160002060009054906101000a900473ffffffffffffffffffffffffffffffffffffffff1673ffffffffffffffffffffffffffffffffffffffff1603610959578083838151811061093e5761093d61246e565b5b6020026020010181815250508180610955906124cc565b9250505b8080610964906124cc565b9150506108bb565b5081935050505090565b600061098182610c55565b9050919050565b60008073ffffffffffffffffffffffffffffffffffffffff168273ffffffffffffffffffffffffffffffffffffffff16036109fb5760006040517f89c62b640000000000000000000000000000000000000000000000000000000081526004016109f29190611eaf565b60405180910390fd5b600360008373ffffffffffffffffffffffffffffffffffffffff1673ffffffffffffffffffffffffffffffffffffffff168152602001908152602001600020549050919050565b60006009600083815260200190815260200160002060009054906101000a900473ffffffffffffffffffffffffffffffffffffffff169050919050565b606060018054610a8e9061243d565b80601f0160208091040260200160405190810160405280929190818152602001828054610aba9061243d565b8015610b075780601f10610adc57610100808354040283529160200191610b07565b820191906000526020600020905b815481529060010190602001808311610aea57829003601f168201915b5050505050905090565b610b23610b1c610d1a565b8383610fc8565b5050565b610b32848484610573565b610b3e84848484611137565b50505050565b6060610b4f826112ee565b9050919050565b6000600754905090565b6000600560008473ffffffffffffffffffffffffffffffffffffffff1673ffffffffffffffffffffffffffffffffffffffff16815260200190815260200160002060008373ffffffffffffffffffffffffffffffffffffffff1673ffffffffffffffffffffffffffffffffffffffff16815260200190815260200160002060009054906101000a900460ff16905092915050565b6000634906490660e01b7bffffffffffffffffffffffffffffffffffffffffffffffffffffffff1916827bffffffffffffffffffffffffffffffffffffffffffffffffffffffff19161480610c4e5750610c4d82611401565b5b9050919050565b600080610c61836114e3565b9050600073ffffffffffffffffffffffffffffffffffffffff168173ffffffffffffffffffffffffffffffffffffffff1603610cd457826040517f7e273289000000000000000000000000000000000000000000000000000000008152600401610ccb9190612223565b60405180910390fd5b80915050919050565b60006004600083815260200190815260200160002060009054906101000a900473ffffffffffffffffffffffffffffffffffffffff169050919050565b600033905090565b610d2f8383836001611520565b505050565b600080610d40846114e3565b9050600073ffffffffffffffffffffffffffffffffffffffff168373ffffffffffffffffffffffffffffffffffffffff1614610d8257610d818184866116e5565b5b600073ffffffffffffffffffffffffffffffffffffffff168173ffffffffffffffffffffffffffffffffffffffff1614610e1357610dc4600085600080611520565b6001600360008373ffffffffffffffffffffffffffffffffffffffff1673ffffffffffffffffffffffffffffffffffffffff168152602001908152602001600020600082825403925050819055505b600073ffffffffffffffffffffffffffffffffffffffff168573ffffffffffffffffffffffffffffffffffffffff1614610e96576001600360008773ffffffffffffffffffffffffffffffffffffffff1673ffffffffffffffffffffffffffffffffffffffff168152602001908152602001600020600082825401925050819055505b846002600086815260200190815260200160002060006101000a81548173ffffffffffffffffffffffffffffffffffffffff021916908373ffffffffffffffffffffffffffffffffffffffff160217905550838573ffffffffffffffffffffffffffffffffffffffff168273ffffffffffffffffffffffffffffffffffffffff167fddf252ad1be2c89b69c2b068fc378daa952ba7f163c4a11628f55a4df523b3ef60405160405180910390a4809150509392505050565b610f688282604051806020016040528060008152506117a9565b5050565b80600660008481526020019081526020016000209081610f8c919061275b565b507ff8e1a15aba9398e019f0b49df1a4fde98ee17ae345cb5f6b5e2c27f5033e8ce782604051610fbc9190612223565b60405180910390a15050565b600073ffffffffffffffffffffffffffffffffffffffff168273ffffffffffffffffffffffffffffffffffffffff160361103957816040517f5b08ba180000000000000000000000000000000000000000000000000000000081526004016110309190611eaf565b60405180910390fd5b80600560008573ffffffffffffffffffffffffffffffffffffffff1673ffffffffffffffffffffffffffffffffffffffff16815260200190815260200160002060008473ffffffffffffffffffffffffffffffffffffffff1673ffffffffffffffffffffffffffffffffffffffff16815260200190815260200160002060006101000a81548160ff0219169083151502179055508173ffffffffffffffffffffffffffffffffffffffff168373ffffffffffffffffffffffffffffffffffffffff167f17307eab39ab6107e8899845ad3d59bd9653f200f220920489ca2b5937696c318360405161112a9190611d3e565b60405180910390a3505050565b60008373ffffffffffffffffffffffffffffffffffffffff163b11156112e8578273ffffffffffffffffffffffffffffffffffffffff1663150b7a0261117b610d1a565b8685856040518563ffffffff1660e01b815260040161119d9493929190612882565b6020604051808303816000875af19250505080156111d957506040513d601f19601f820116820180604052508101906111d691906128e3565b60015b61125d573d8060008114611209576040519150601f19603f3d011682016040523d82523d6000602084013e61120e565b606091505b50600081510361125557836040517f64a0ae9200000000000000000000000000000000000000000000000000000000815260040161124c9190611eaf565b60405180910390fd5b805181602001fd5b63150b7a0260e01b7bffffffffffffffffffffffffffffffffffffffffffffffffffffffff1916817bffffffffffffffffffffffffffffffffffffffffffffffffffffffff1916146112e657836040517f64a0ae920000000000000000000000000000000000000000000000000000000081526004016112dd9190611eaf565b60405180910390fd5b505b50505050565b60606112f982610c55565b50600060066000848152602001908152602001600020805461131a9061243d565b80601f01602080910402602001604051908101604052809291908181526020018280546113469061243d565b80156113935780601f1061136857610100808354040283529160200191611393565b820191906000526020600020905b81548152906001019060200180831161137657829003601f168201915b5050505050905060006113a46117c5565b905060008151036113b95781925050506113fc565b6000825111156113ee5780826040516020016113d692919061294c565b604051602081830303815290604052925050506113fc565b6113f7846117dc565b925050505b919050565b60007f80ac58cd000000000000000000000000000000000000000000000000000000007bffffffffffffffffffffffffffffffffffffffffffffffffffffffff1916827bffffffffffffffffffffffffffffffffffffffffffffffffffffffff191614806114cc57507f5b5e139f000000000000000000000000000000000000000000000000000000007bffffffffffffffffffffffffffffffffffffffffffffffffffffffff1916827bffffffffffffffffffffffffffffffffffffffffffffffffffffffff1916145b806114dc57506114db82611845565b5b9050919050565b60006002600083815260200190815260200160002060009054906101000a900473ffffffffffffffffffffffffffffffffffffffff169050919050565b80806115595750600073ffffffffffffffffffffffffffffffffffffffff168273ffffffffffffffffffffffffffffffffffffffff1614155b1561168d57600061156984610c55565b9050600073ffffffffffffffffffffffffffffffffffffffff168373ffffffffffffffffffffffffffffffffffffffff16141580156115d457508273ffffffffffffffffffffffffffffffffffffffff168173ffffffffffffffffffffffffffffffffffffffff1614155b80156115e757506115e58184610b60565b155b1561162957826040517fa9fbf51f0000000000000000000000000000000000000000000000000000000081526004016116209190611eaf565b60405180910390fd5b811561168b57838573ffffffffffffffffffffffffffffffffffffffff168273ffffffffffffffffffffffffffffffffffffffff167f8c5be1e5ebec7d5bd14f71427d1e84f3dd0314c0f7b2291e5b200ac8c7c3b92560405160405180910390a45b505b836004600085815260200190815260200160002060006101000a81548173ffffffffffffffffffffffffffffffffffffffff021916908373ffffffffffffffffffffffffffffffffffffffff16021790555050505050565b6116f08383836118af565b6117a457600073ffffffffffffffffffffffffffffffffffffffff168373ffffffffffffffffffffffffffffffffffffffff160361176557806040517f7e27328900000000000000000000000000000000000000000000000000000000815260040161175c9190612223565b60405180910390fd5b81816040517f177e802f00000000000000000000000000000000000000000000000000000000815260040161179b929190612970565b60405180910390fd5b505050565b6117b38383611970565b6117c06000848484611137565b505050565b606060405180602001604052806000815250905090565b60606117e782610c55565b5060006117f26117c5565b90506000815111611812576040518060200160405280600081525061183d565b8061181c84611a69565b60405160200161182d92919061294c565b6040516020818303038152906040525b915050919050565b60007f01ffc9a7000000000000000000000000000000000000000000000000000000007bffffffffffffffffffffffffffffffffffffffffffffffffffffffff1916827bffffffffffffffffffffffffffffffffffffffffffffffffffffffff1916149050919050565b60008073ffffffffffffffffffffffffffffffffffffffff168373ffffffffffffffffffffffffffffffffffffffff161415801561196757508273ffffffffffffffffffffffffffffffffffffffff168473ffffffffffffffffffffffffffffffffffffffff16148061192857506119278484610b60565b5b8061196657508273ffffffffffffffffffffffffffffffffffffffff1661194e83610cdd565b73ffffffffffffffffffffffffffffffffffffffff16145b5b90509392505050565b600073ffffffffffffffffffffffffffffffffffffffff168273ffffffffffffffffffffffffffffffffffffffff16036119e25760006040517f64a0ae920000000000000000000000000000000000000000000000000000000081526004016119d99190611eaf565b60405180910390fd5b60006119f083836000610d34565b9050600073ffffffffffffffffffffffffffffffffffffffff168173ffffffffffffffffffffffffffffffffffffffff1614611a645760006040517f73c6ac6e000000000000000000000000000000000000000000000000000000008152600401611a5b9190611eaf565b60405180910390fd5b505050565b606060006001611a7884611b37565b01905060008167ffffffffffffffff811115611a9757611a96612073565b5b6040519080825280601f01601f191660200182016040528015611ac95781602001600182028036833780820191505090505b509050600082602001820190505b600115611b2c578080600190039150507f3031323334353637383961626364656600000000000000000000000000000000600a86061a8153600a8581611b2057611b1f612999565b5b04945060008503611ad7575b819350505050919050565b600080600090507a184f03e93ff9f4daa797ed6e38ed64bf6a1f0100000000000000008310611b95577a184f03e93ff9f4daa797ed6e38ed64bf6a1f0100000000000000008381611b8b57611b8a612999565b5b0492506040810190505b6d04ee2d6d415b85acef81000000008310611bd2576d04ee2d6d415b85acef81000000008381611bc857611bc7612999565b5b0492506020810190505b662386f26fc100008310611c0157662386f26fc100008381611bf757611bf6612999565b5b0492506010810190505b6305f5e1008310611c2a576305f5e1008381611c2057611c1f612999565b5b0492506008810190505b6127108310611c4f576127108381611c4557611c44612999565b5b0492506004810190505b60648310611c725760648381611c6857611c67612999565b5b0492506002810190505b600a8310611c81576001810190505b80915050919050565b6000604051905090565b600080fd5b600080fd5b60007fffffffff0000000000000000000000000000000000000000000000000000000082169050919050565b611cd381611c9e565b8114611cde57600080fd5b50565b600081359050611cf081611cca565b92915050565b600060208284031215611d0c57611d0b611c94565b5b6000611d1a84828501611ce1565b91505092915050565b60008115159050919050565b611d3881611d23565b82525050565b6000602082019050611d536000830184611d2f565b92915050565b600081519050919050565b600082825260208201905092915050565b60005b83811015611d93578082015181840152602081019050611d78565b60008484015250505050565b6000601f19601f8301169050919050565b6000611dbb82611d59565b611dc58185611d64565b9350611dd5818560208601611d75565b611dde81611d9f565b840191505092915050565b60006020820190508181036000830152611e038184611db0565b905092915050565b6000819050919050565b611e1e81611e0b565b8114611e2957600080fd5b50565b600081359050611e3b81611e15565b92915050565b600060208284031215611e5757611e56611c94565b5b6000611e6584828501611e2c565b91505092915050565b600073ffffffffffffffffffffffffffffffffffffffff82169050919050565b6000611e9982611e6e565b9050919050565b611ea981611e8e565b82525050565b6000602082019050611ec46000830184611ea0565b92915050565b611ed381611e8e565b8114611ede57600080fd5b50565b600081359050611ef081611eca565b92915050565b60008060408385031215611f0d57611f0c611c94565b5b6000611f1b85828601611ee1565b9250506020611f2c85828601611e2c565b9150509250929050565b600081519050919050565b600082825260208201905092915050565b6000819050602082019050919050565b611f6b81611e0b565b82525050565b6000611f7d8383611f62565b60208301905092915050565b6000602082019050919050565b6000611fa182611f36565b611fab8185611f41565b9350611fb683611f52565b8060005b83811015611fe7578151611fce8882611f71565b9750611fd983611f89565b925050600181019050611fba565b5085935050505092915050565b6000602082019050818103600083015261200e8184611f96565b905092915050565b60008060006060848603121561202f5761202e611c94565b5b600061203d86828701611ee1565b935050602061204e86828701611ee1565b925050604061205f86828701611e2c565b9150509250925092565b600080fd5b600080fd5b7f4e487b7100000000000000000000000000000000000000000000000000000000600052604160045260246000fd5b6120ab82611d9f565b810181811067ffffffffffffffff821117156120ca576120c9612073565b5b80604052505050565b60006120dd611c8a565b90506120e982826120a2565b919050565b600067ffffffffffffffff82111561210957612108612073565b5b61211282611d9f565b9050602081019050919050565b82818337600083830152505050565b600061214161213c846120ee565b6120d3565b90508281526020810184848401111561215d5761215c61206e565b5b61216884828561211f565b509392505050565b600082601f83011261218557612184612069565b5b813561219584826020860161212e565b91505092915050565b6000602082840312156121b4576121b3611c94565b5b600082013567ffffffffffffffff8111156121d2576121d1611c99565b5b6121de84828501612170565b91505092915050565b6000602082840312156121fd576121fc611c94565b5b600061220b84828501611ee1565b91505092915050565b61221d81611e0b565b82525050565b60006020820190506122386000830184612214565b92915050565b61224781611d23565b811461225257600080fd5b50565b6000813590506122648161223e565b92915050565b6000806040838503121561228157612280611c94565b5b600061228f85828601611ee1565b92505060206122a085828601612255565b9150509250929050565b600067ffffffffffffffff8211156122c5576122c4612073565b5b6122ce82611d9f565b9050602081019050919050565b60006122ee6122e9846122aa565b6120d3565b90508281526020810184848401111561230a5761230961206e565b5b61231584828561211f565b509392505050565b600082601f83011261233257612331612069565b5b81356123428482602086016122db565b91505092915050565b6000806000806080858703121561236557612364611c94565b5b600061237387828801611ee1565b945050602061238487828801611ee1565b935050604061239587828801611e2c565b925050606085013567ffffffffffffffff8111156123b6576123b5611c99565b5b6123c28782880161231d565b91505092959194509250565b600080604083850312156123e5576123e4611c94565b5b60006123f385828601611ee1565b925050602061240485828601611ee1565b9150509250929050565b7f4e487b7100000000000000000000000000000000000000000000000000000000600052602260045260246000fd5b6000600282049050600182168061245557607f821691505b6020821081036124685761246761240e565b5b50919050565b7f4e487b7100000000000000000000000000000000000000000000000000000000600052603260045260246000fd5b7f4e487b7100000000000000000000000000000000000000000000000000000000600052601160045260246000fd5b60006124d782611e0b565b91507fffffffffffffffffffffffffffffffffffffffffffffffffffffffffffffffff82036125095761250861249d565b5b600182019050919050565b60006060820190506125296000830186611ea0565b6125366020830185612214565b6125436040830184611ea0565b949350505050565b600061255682611e0b565b915061256183611e0b565b92508282019050808211156125795761257861249d565b5b92915050565b600060408201905081810360008301526125998185611db0565b90506125a86020830184611ea0565b9392505050565b60008190508160005260206000209050919050565b60006020601f8301049050919050565b600082821b905092915050565b6000600883026126117fffffffffffffffffffffffffffffffffffffffffffffffffffffffffffffffff826125d4565b61261b86836125d4565b95508019841693508086168417925050509392505050565b6000819050919050565b600061265861265361264e84611e0b565b612633565b611e0b565b9050919050565b6000819050919050565b6126728361263d565b61268661267e8261265f565b8484546125e1565b825550505050565b600090565b61269b61268e565b6126a6818484612669565b505050565b5b818110156126ca576126bf600082612693565b6001810190506126ac565b5050565b601f82111561270f576126e0816125af565b6126e9846125c4565b810160208510156126f8578190505b61270c612704856125c4565b8301826126ab565b50505b505050565b600082821c905092915050565b600061273260001984600802612714565b1980831691505092915050565b600061274b8383612721565b9150826002028217905092915050565b61276482611d59565b67ffffffffffffffff81111561277d5761277c612073565b5b612787825461243d565b6127928282856126ce565b600060209050601f8311600181146127c557600084156127b3578287015190505b6127bd858261273f565b865550612825565b601f1984166127d3866125af565b60005b828110156127fb578489015182556001820191506020850194506020810190506127d6565b868310156128185784890151612814601f891682612721565b8355505b6001600288020188555050505b505050505050565b600081519050919050565b600082825260208201905092915050565b60006128548261282d565b61285e8185612838565b935061286e818560208601611d75565b61287781611d9f565b840191505092915050565b60006080820190506128976000830187611ea0565b6128a46020830186611ea0565b6128b16040830185612214565b81810360608301526128c38184612849565b905095945050505050565b6000815190506128dd81611cca565b92915050565b6000602082840312156128f9576128f8611c94565b5b6000612907848285016128ce565b91505092915050565b600081905092915050565b600061292682611d59565b6129308185612910565b9350612940818560208601611d75565b80840191505092915050565b6000612958828561291b565b9150612964828461291b565b91508190509392505050565b60006040820190506129856000830185611ea0565b6129926020830184612214565b9392505050565b7f4e487b7100000000000000000000000000000000000000000000000000000000600052601260045260246000fdfea26469706673582212207cb396714f22dbec70a3f877cbb2c9d1f6ae12865663df1d126c7bff74ebfe3664736f6c63430008180033",
  "linkReferences": {},
  "deployedLinkReferences": {}
}