{
  "_format": "hh-sol-artifact-1",
  "contractName": "MarketPlace",
  "sourceName": "contracts/MarketPlace.sol",
  "abi": [
    {
      "inputs": [],
      "stateMutability": "nonpayable",
      "type": "constructor"
    },
    {
      "inputs": [],
      "name": "BuyOwnedMarketItem",
      "type": "error"
    },
    {
      "inputs": [],
      "name": "ListingFeeNotMet",
      "type": "error"
    },
    {
      "inputs": [],
      "name": "MarketItemAlreadyListed",
      "type": "error"
    },
    {
      "inputs": [],
      "name": "MarketItemNotListed",
      "type": "error"
    },
    {
      "inputs": [],
      "name": "NotMarketItemSeller",
      "type": "error"
    },
    {
      "inputs": [],
      "name": "NotMarketPlaceOwner",
      "type": "error"
    },
    {
      "inputs": [],
      "name": "NotTokenOwner",
      "type": "error"
    },
    {
      "inputs": [],
      "name": "PriceNotMet",
      "type": "error"
    },
    {
      "inputs": [],
      "name": "ReentrancyGuardReentrantCall",
      "type": "error"
    },
    {
      "inputs": [],
      "name": "TokenAlreadyListed",
      "type": "error"
    },
    {
      "anonymous": false,
      "inputs": [
        {
          "indexed": true,
          "internalType": "uint256",
          "name": "id",
          "type": "uint256"
        },
        {
          "indexed": true,
          "internalType": "address",
          "name": "nftAddress",
          "type": "address"
        },
        {
          "indexed": true,
          "internalType": "uint256",
          "name": "tokenId",
          "type": "uint256"
        },
        {
          "indexed": false,
          "internalType": "uint256",
          "name": "price",
          "type": "uint256"
        },
        {
          "indexed": false,
          "internalType": "address",
          "name": "buyer",
          "type": "address"
        },
        {
          "indexed": false,
          "internalType": "address",
          "name": "seller",
          "type": "address"
        }
      ],
      "name": "MarketItemBought",
      "type": "event"
    },
    {
      "anonymous": false,
      "inputs": [
        {
          "indexed": true,
          "internalType": "uint256",
          "name": "id",
          "type": "uint256"
        },
        {
          "indexed": true,
          "internalType": "address",
          "name": "nftAddress",
          "type": "address"
        },
        {
          "indexed": true,
          "internalType": "uint256",
          "name": "tokenId",
          "type": "uint256"
        },
        {
          "indexed": false,
          "internalType": "uint256",
          "name": "price",
          "type": "uint256"
        },
        {
          "indexed": false,
          "internalType": "address",
          "name": "creator",
          "type": "address"
        },
        {
          "indexed": false,
          "internalType": "address",
          "name": "seller",
          "type": "address"
        }
      ],
      "name": "MarketItemCreated",
      "type": "event"
    },
    {
      "inputs": [
        {
          "internalType": "uint256",
          "name": "marketItemId",
          "type": "uint256"
        }
      ],
      "name": "buyMarketItem",
      "outputs": [],
      "stateMutability": "payable",
      "type": "function"
    },
    {
      "inputs": [
        {
          "internalType": "uint256",
          "name": "marketItemId",
          "type": "uint256"
        }
      ],
      "name": "cancelMarketItem",
      "outputs": [],
      "stateMutability": "nonpayable",
      "type": "function"
    },
    {
      "inputs": [],
      "name": "getListingFee",
      "outputs": [
        {
          "internalType": "uint256",
          "name": "",
          "type": "uint256"
        }
      ],
      "stateMutability": "view",
      "type": "function"
    },
    {
      "inputs": [],
      "name": "getListingMarketItems",
      "outputs": [
        {
          "components": [
            {
              "internalType": "uint256",
              "name": "id",
              "type": "uint256"
            },
            {
              "internalType": "address",
              "name": "nftAddress",
              "type": "address"
            },
            {
              "internalType": "uint256",
              "name": "tokenId",
              "type": "uint256"
            },
            {
              "internalType": "uint256",
              "name": "price",
              "type": "uint256"
            },
            {
              "internalType": "address",
              "name": "creator",
              "type": "address"
            },
            {
              "internalType": "address",
              "name": "seller",
              "type": "address"
            },
            {
              "internalType": "bool",
              "name": "isListing",
              "type": "bool"
            }
          ],
          "internalType": "struct MarketPlace.MarketItem[]",
          "name": "",
          "type": "tuple[]"
        }
      ],
      "stateMutability": "view",
      "type": "function"
    },
    {
      "inputs": [],
      "name": "getListingMarketItemsCounter",
      "outputs": [
        {
          "internalType": "uint256",
          "name": "",
          "type": "uint256"
        }
      ],
      "stateMutability": "view",
      "type": "function"
    },
    {
      "inputs": [
        {
          "internalType": "uint256",
          "name": "marketItemId",
          "type": "uint256"
        }
      ],
      "name": "getMarketItemById",
      "outputs": [
        {
          "components": [
            {
              "internalType": "uint256",
              "name": "id",
              "type": "uint256"
            },
            {
              "internalType": "address",
              "name": "nftAddress",
              "type": "address"
            },
            {
              "internalType": "uint256",
              "name": "tokenId",
              "type": "uint256"
            },
            {
              "internalType": "uint256",
              "name": "price",
              "type": "uint256"
            },
            {
              "internalType": "address",
              "name": "creator",
              "type": "address"
            },
            {
              "internalType": "address",
              "name": "seller",
              "type": "address"
            },
            {
              "internalType": "bool",
              "name": "isListing",
              "type": "bool"
            }
          ],
          "internalType": "struct MarketPlace.MarketItem",
          "name": "",
          "type": "tuple"
        }
      ],
      "stateMutability": "view",
      "type": "function"
    },
    {
      "inputs": [],
      "name": "getMarketItemCounter",
      "outputs": [
        {
          "internalType": "uint256",
          "name": "",
          "type": "uint256"
        }
      ],
      "stateMutability": "view",
      "type": "function"
    },
    {
      "inputs": [],
      "name": "getMyMarketItems",
      "outputs": [
        {
          "components": [
            {
              "internalType": "uint256",
              "name": "id",
              "type": "uint256"
            },
            {
              "internalType": "address",
              "name": "nftAddress",
              "type": "address"
            },
            {
              "internalType": "uint256",
              "name": "tokenId",
              "type": "uint256"
            },
            {
              "internalType": "uint256",
              "name": "price",
              "type": "uint256"
            },
            {
              "internalType": "address",
              "name": "creator",
              "type": "address"
            },
            {
              "internalType": "address",
              "name": "seller",
              "type": "address"
            },
            {
              "internalType": "bool",
              "name": "isListing",
              "type": "bool"
            }
          ],
          "internalType": "struct MarketPlace.MarketItem[]",
          "name": "",
          "type": "tuple[]"
        }
      ],
      "stateMutability": "view",
      "type": "function"
    },
    {
      "inputs": [
        {
          "internalType": "address",
          "name": "nftAddress",
          "type": "address"
        },
        {
          "internalType": "uint256",
          "name": "tokenId",
          "type": "uint256"
        },
        {
          "internalType": "uint256",
          "name": "price",
          "type": "uint256"
        }
      ],
      "name": "listMarketItem",
      "outputs": [],
      "stateMutability": "payable",
      "type": "function"
    },
    {
      "inputs": [
        {
          "internalType": "uint256",
          "name": "marketItemId",
          "type": "uint256"
        },
        {
          "internalType": "uint256",
          "name": "price",
          "type": "uint256"
        }
      ],
      "name": "reListMarketItem",
      "outputs": [],
      "stateMutability": "nonpayable",
      "type": "function"
    },
    {
      "inputs": [
        {
          "internalType": "uint256",
          "name": "listingFee",
          "type": "uint256"
        }
      ],
      "name": "setListingFee",
      "outputs": [],
      "stateMutability": "nonpayable",
      "type": "function"
    },
    {
      "inputs": [
        {
          "internalType": "uint256",
          "name": "marketItemId",
          "type": "uint256"
        },
        {
          "internalType": "uint256",
          "name": "price",
          "type": "uint256"
        }
      ],
      "name": "updateMarketItem",
      "outputs": [],
      "stateMutability": "nonpayable",
      "type": "function"
    }
  ],
  "bytecode": "0x608060405234801561001057600080fd5b50600160008190555033600160006101000a81548173ffffffffffffffffffffffffffffffffffffffff021916908373ffffffffffffffffffffffffffffffffffffffff1602179055506000600281905550600060038190555060006004819055506121fa806100816000396000f3fe6080604052600436106100a75760003560e01c806353dbceb11161006457806353dbceb11461018a57806369ad7747146101c7578063a3f2230a146101f2578063a6e22b021461021d578063b8fe6abe14610246578063f58ffecc14610271576100a7565b8063131dbd09146100ac578063213c4e1a146100d5578063255f8d7b146100f1578063351901c31461011a57806338594032146101365780633860c0ac14610161575b600080fd5b3480156100b857600080fd5b506100d360048036038101906100ce9190611c4a565b61029c565b005b6100ef60048036038101906100ea9190611cd5565b61032d565b005b3480156100fd57600080fd5b5061011860048036038101906101139190611d28565b610800565b005b610134600480360381019061012f9190611c4a565b6109f8565b005b34801561014257600080fd5b5061014b610e53565b6040516101589190611ede565b60405180910390f35b34801561016d57600080fd5b5061018860048036038101906101839190611d28565b611167565b005b34801561019657600080fd5b506101b160048036038101906101ac9190611c4a565b611540565b6040516101be9190611f8e565b60405180910390f35b3480156101d357600080fd5b506101dc6116a8565b6040516101e99190611fb8565b60405180910390f35b3480156101fe57600080fd5b506102076116b2565b6040516102149190611fb8565b60405180910390f35b34801561022957600080fd5b50610244600480360381019061023f9190611c4a565b6116bc565b005b34801561025257600080fd5b5061025b6118fb565b6040516102689190611fb8565b60405180910390f35b34801561027d57600080fd5b50610286611905565b6040516102939190611ede565b60405180910390f35b600160009054906101000a900473ffffffffffffffffffffffffffffffffffffffff1673ffffffffffffffffffffffffffffffffffffffff163373ffffffffffffffffffffffffffffffffffffffff1614610323576040517f2d49a92300000000000000000000000000000000000000000000000000000000815260040160405180910390fd5b8060028190555050565b610335611b3e565b82823360008390508173ffffffffffffffffffffffffffffffffffffffff168173ffffffffffffffffffffffffffffffffffffffff16636352211e856040518263ffffffff1660e01b815260040161038d9190611fb8565b602060405180830381865afa1580156103aa573d6000803e3d6000fd5b505050506040513d601f19601f820116820180604052508101906103ce9190611fe8565b73ffffffffffffffffffffffffffffffffffffffff161461041b576040517f59dc379f00000000000000000000000000000000000000000000000000000000815260040160405180910390fd5b6000600160035461042c9190612044565b90506002543414610469576040517f6c58266300000000000000000000000000000000000000000000000000000000815260040160405180910390fd5b6000600190505b6003548111610549578873ffffffffffffffffffffffffffffffffffffffff166005600083815260200190815260200160002060010160009054906101000a900473ffffffffffffffffffffffffffffffffffffffff1673ffffffffffffffffffffffffffffffffffffffff161480156104ff5750876005600083815260200190815260200160002060020154145b15610536576040517fdeaabdc200000000000000000000000000000000000000000000000000000000815260040160405180910390fd5b808061054190612078565b915050610470565b5060008873ffffffffffffffffffffffffffffffffffffffff1663867d3397896040518263ffffffff1660e01b81526004016105859190611fb8565b602060405180830381865afa1580156105a2573d6000803e3d6000fd5b505050506040513d601f19601f820116820180604052508101906105c69190611fe8565b90506040518060e001604052808381526020018a73ffffffffffffffffffffffffffffffffffffffff1681526020018981526020018881526020018273ffffffffffffffffffffffffffffffffffffffff1681526020013373ffffffffffffffffffffffffffffffffffffffff16815260200160011515815250600560008481526020019081526020016000206000820151816000015560208201518160010160006101000a81548173ffffffffffffffffffffffffffffffffffffffff021916908373ffffffffffffffffffffffffffffffffffffffff160217905550604082015181600201556060820151816003015560808201518160040160006101000a81548173ffffffffffffffffffffffffffffffffffffffff021916908373ffffffffffffffffffffffffffffffffffffffff16021790555060a08201518160050160006101000a81548173ffffffffffffffffffffffffffffffffffffffff021916908373ffffffffffffffffffffffffffffffffffffffff16021790555060c08201518160050160146101000a81548160ff0219169083151502179055509050506003600081548092919061077c90612078565b91905055506004600081548092919061079490612078565b9190505550878973ffffffffffffffffffffffffffffffffffffffff16837f706c9a5cf04d672a67766763011ec0329bf2015cb49b4ee3d0478c01e636dff88a85336040516107e5939291906120cf565b60405180910390a45050505050506107fb611b84565b505050565b610808611b3e565b816000600560008381526020019081526020016000206040518060e0016040529081600082015481526020016001820160009054906101000a900473ffffffffffffffffffffffffffffffffffffffff1673ffffffffffffffffffffffffffffffffffffffff1673ffffffffffffffffffffffffffffffffffffffff16815260200160028201548152602001600382015481526020016004820160009054906101000a900473ffffffffffffffffffffffffffffffffffffffff1673ffffffffffffffffffffffffffffffffffffffff1673ffffffffffffffffffffffffffffffffffffffff1681526020016005820160009054906101000a900473ffffffffffffffffffffffffffffffffffffffff1673ffffffffffffffffffffffffffffffffffffffff1673ffffffffffffffffffffffffffffffffffffffff1681526020016005820160149054906101000a900460ff16151515158152505090503373ffffffffffffffffffffffffffffffffffffffff168160a0015173ffffffffffffffffffffffffffffffffffffffff16146109cf576040517f3733508d00000000000000000000000000000000000000000000000000000000815260040160405180910390fd5b82600560008681526020019081526020016000206003018190555050506109f4611b84565b5050565b610a00611b3e565b806005600082815260200190815260200160002060050160149054906101000a900460ff16610a5b576040517f71d9ea3a00000000000000000000000000000000000000000000000000000000815260040160405180910390fd5b6000600560008481526020019081526020016000206040518060e0016040529081600082015481526020016001820160009054906101000a900473ffffffffffffffffffffffffffffffffffffffff1673ffffffffffffffffffffffffffffffffffffffff1673ffffffffffffffffffffffffffffffffffffffff16815260200160028201548152602001600382015481526020016004820160009054906101000a900473ffffffffffffffffffffffffffffffffffffffff1673ffffffffffffffffffffffffffffffffffffffff1673ffffffffffffffffffffffffffffffffffffffff1681526020016005820160009054906101000a900473ffffffffffffffffffffffffffffffffffffffff1673ffffffffffffffffffffffffffffffffffffffff1673ffffffffffffffffffffffffffffffffffffffff1681526020016005820160149054906101000a900460ff161515151581525050905080606001513414610bf5576040517fa2c2d5c600000000000000000000000000000000000000000000000000000000815260040160405180910390fd5b3373ffffffffffffffffffffffffffffffffffffffff168160a0015173ffffffffffffffffffffffffffffffffffffffff1603610c5e576040517f903cd3c800000000000000000000000000000000000000000000000000000000815260040160405180910390fd5b6000816020015190508073ffffffffffffffffffffffffffffffffffffffff166342842e0e8360a001513385604001516040518463ffffffff1660e01b8152600401610cac93929190612106565b600060405180830381600087803b158015610cc657600080fd5b505af1158015610cda573d6000803e3d6000fd5b50505050336005600086815260200190815260200160002060050160006101000a81548173ffffffffffffffffffffffffffffffffffffffff021916908373ffffffffffffffffffffffffffffffffffffffff1602179055506000600560008681526020019081526020016000206003018190555060006005600086815260200190815260200160002060050160146101000a81548160ff0219169083151502179055508160a0015173ffffffffffffffffffffffffffffffffffffffff166108fc349081150290604051600060405180830381858888f19350505050158015610dc8573d6000803e3d6000fd5b5060046000815480929190610ddc9061213d565b91905055508160400151826020015173ffffffffffffffffffffffffffffffffffffffff16857f8781846c2449e297e4620aa5d542c2587bfc51a0a52cb72a62e11afc1835e3b98560600151338760a00151604051610e3d939291906120cf565b60405180910390a4505050610e50611b84565b50565b6060600080600190505b6003548111610ef1573373ffffffffffffffffffffffffffffffffffffffff166005600083815260200190815260200160002060050160009054906101000a900473ffffffffffffffffffffffffffffffffffffffff1673ffffffffffffffffffffffffffffffffffffffff1603610ede578180610eda90612078565b9250505b8080610ee990612078565b915050610e5d565b5060008167ffffffffffffffff811115610f0e57610f0d612166565b5b604051908082528060200260200182016040528015610f4757816020015b610f34611b8e565b815260200190600190039081610f2c5790505b509050600080600190505b600354811161115d573373ffffffffffffffffffffffffffffffffffffffff166005600083815260200190815260200160002060050160009054906101000a900473ffffffffffffffffffffffffffffffffffffffff1673ffffffffffffffffffffffffffffffffffffffff160361114a57600560008281526020019081526020016000206040518060e0016040529081600082015481526020016001820160009054906101000a900473ffffffffffffffffffffffffffffffffffffffff1673ffffffffffffffffffffffffffffffffffffffff1673ffffffffffffffffffffffffffffffffffffffff16815260200160028201548152602001600382015481526020016004820160009054906101000a900473ffffffffffffffffffffffffffffffffffffffff1673ffffffffffffffffffffffffffffffffffffffff1673ffffffffffffffffffffffffffffffffffffffff1681526020016005820160009054906101000a900473ffffffffffffffffffffffffffffffffffffffff1673ffffffffffffffffffffffffffffffffffffffff1673ffffffffffffffffffffffffffffffffffffffff1681526020016005820160149054906101000a900460ff1615151515815250508383815181106111305761112f612195565b5b6020026020010181905250818061114690612078565b9250505b808061115590612078565b915050610f52565b5081935050505090565b61116f611b3e565b816000600560008381526020019081526020016000206040518060e0016040529081600082015481526020016001820160009054906101000a900473ffffffffffffffffffffffffffffffffffffffff1673ffffffffffffffffffffffffffffffffffffffff1673ffffffffffffffffffffffffffffffffffffffff16815260200160028201548152602001600382015481526020016004820160009054906101000a900473ffffffffffffffffffffffffffffffffffffffff1673ffffffffffffffffffffffffffffffffffffffff1673ffffffffffffffffffffffffffffffffffffffff1681526020016005820160009054906101000a900473ffffffffffffffffffffffffffffffffffffffff1673ffffffffffffffffffffffffffffffffffffffff1673ffffffffffffffffffffffffffffffffffffffff1681526020016005820160149054906101000a900460ff16151515158152505090503373ffffffffffffffffffffffffffffffffffffffff168160a0015173ffffffffffffffffffffffffffffffffffffffff1614611336576040517f3733508d00000000000000000000000000000000000000000000000000000000815260040160405180910390fd5b6000600560008681526020019081526020016000206040518060e0016040529081600082015481526020016001820160009054906101000a900473ffffffffffffffffffffffffffffffffffffffff1673ffffffffffffffffffffffffffffffffffffffff1673ffffffffffffffffffffffffffffffffffffffff16815260200160028201548152602001600382015481526020016004820160009054906101000a900473ffffffffffffffffffffffffffffffffffffffff1673ffffffffffffffffffffffffffffffffffffffff1673ffffffffffffffffffffffffffffffffffffffff1681526020016005820160009054906101000a900473ffffffffffffffffffffffffffffffffffffffff1673ffffffffffffffffffffffffffffffffffffffff1673ffffffffffffffffffffffffffffffffffffffff1681526020016005820160149054906101000a900460ff16151515158152505090508060c00151156114cf576040517f8cbd84a000000000000000000000000000000000000000000000000000000000815260040160405180910390fd5b60016005600087815260200190815260200160002060050160146101000a81548160ff0219169083151502179055508360056000878152602001908152602001600020600301819055506004600081548092919061152c90612078565b919050555050505061153c611b84565b5050565b611548611b8e565b600560008381526020019081526020016000206040518060e0016040529081600082015481526020016001820160009054906101000a900473ffffffffffffffffffffffffffffffffffffffff1673ffffffffffffffffffffffffffffffffffffffff1673ffffffffffffffffffffffffffffffffffffffff16815260200160028201548152602001600382015481526020016004820160009054906101000a900473ffffffffffffffffffffffffffffffffffffffff1673ffffffffffffffffffffffffffffffffffffffff1673ffffffffffffffffffffffffffffffffffffffff1681526020016005820160009054906101000a900473ffffffffffffffffffffffffffffffffffffffff1673ffffffffffffffffffffffffffffffffffffffff1673ffffffffffffffffffffffffffffffffffffffff1681526020016005820160149054906101000a900460ff1615151515815250509050919050565b6000600354905090565b6000600454905090565b6116c4611b3e565b806000600560008381526020019081526020016000206040518060e0016040529081600082015481526020016001820160009054906101000a900473ffffffffffffffffffffffffffffffffffffffff1673ffffffffffffffffffffffffffffffffffffffff1673ffffffffffffffffffffffffffffffffffffffff16815260200160028201548152602001600382015481526020016004820160009054906101000a900473ffffffffffffffffffffffffffffffffffffffff1673ffffffffffffffffffffffffffffffffffffffff1673ffffffffffffffffffffffffffffffffffffffff1681526020016005820160009054906101000a900473ffffffffffffffffffffffffffffffffffffffff1673ffffffffffffffffffffffffffffffffffffffff1673ffffffffffffffffffffffffffffffffffffffff1681526020016005820160149054906101000a900460ff16151515158152505090503373ffffffffffffffffffffffffffffffffffffffff168160a0015173ffffffffffffffffffffffffffffffffffffffff161461188b576040517f3733508d00000000000000000000000000000000000000000000000000000000815260040160405180910390fd5b60006005600085815260200190815260200160002060050160146101000a81548160ff02191690831515021790555060006005600085815260200190815260200160002060030181905550600460008154809291906118e99061213d565b919050555050506118f8611b84565b50565b6000600254905090565b606060008060045467ffffffffffffffff81111561192657611925612166565b5b60405190808252806020026020018201604052801561195f57816020015b61194c611b8e565b8152602001906001900390816119445790505b509050600060035490505b6000811115611b35576005600082815260200190815260200160002060050160149054906101000a900460ff1615611b2257600560008281526020019081526020016000206040518060e0016040529081600082015481526020016001820160009054906101000a900473ffffffffffffffffffffffffffffffffffffffff1673ffffffffffffffffffffffffffffffffffffffff1673ffffffffffffffffffffffffffffffffffffffff16815260200160028201548152602001600382015481526020016004820160009054906101000a900473ffffffffffffffffffffffffffffffffffffffff1673ffffffffffffffffffffffffffffffffffffffff1673ffffffffffffffffffffffffffffffffffffffff1681526020016005820160009054906101000a900473ffffffffffffffffffffffffffffffffffffffff1673ffffffffffffffffffffffffffffffffffffffff1673ffffffffffffffffffffffffffffffffffffffff1681526020016005820160149054906101000a900460ff161515151581525050828481518110611b0857611b07612195565b5b60200260200101819052508280611b1e90612078565b9350505b8080611b2d9061213d565b91505061196a565b50809250505090565b600260005403611b7a576040517f3ee5aeb500000000000000000000000000000000000000000000000000000000815260040160405180910390fd5b6002600081905550565b6001600081905550565b6040518060e0016040528060008152602001600073ffffffffffffffffffffffffffffffffffffffff1681526020016000815260200160008152602001600073ffffffffffffffffffffffffffffffffffffffff168152602001600073ffffffffffffffffffffffffffffffffffffffff1681526020016000151581525090565b600080fd5b6000819050919050565b611c2781611c14565b8114611c3257600080fd5b50565b600081359050611c4481611c1e565b92915050565b600060208284031215611c6057611c5f611c0f565b5b6000611c6e84828501611c35565b91505092915050565b600073ffffffffffffffffffffffffffffffffffffffff82169050919050565b6000611ca282611c77565b9050919050565b611cb281611c97565b8114611cbd57600080fd5b50565b600081359050611ccf81611ca9565b92915050565b600080600060608486031215611cee57611ced611c0f565b5b6000611cfc86828701611cc0565b9350506020611d0d86828701611c35565b9250506040611d1e86828701611c35565b9150509250925092565b60008060408385031215611d3f57611d3e611c0f565b5b6000611d4d85828601611c35565b9250506020611d5e85828601611c35565b9150509250929050565b600081519050919050565b600082825260208201905092915050565b6000819050602082019050919050565b611d9d81611c14565b82525050565b611dac81611c97565b82525050565b60008115159050919050565b611dc781611db2565b82525050565b60e082016000820151611de36000850182611d94565b506020820151611df66020850182611da3565b506040820151611e096040850182611d94565b506060820151611e1c6060850182611d94565b506080820151611e2f6080850182611da3565b5060a0820151611e4260a0850182611da3565b5060c0820151611e5560c0850182611dbe565b50505050565b6000611e678383611dcd565b60e08301905092915050565b6000602082019050919050565b6000611e8b82611d68565b611e958185611d73565b9350611ea083611d84565b8060005b83811015611ed1578151611eb88882611e5b565b9750611ec383611e73565b925050600181019050611ea4565b5085935050505092915050565b60006020820190508181036000830152611ef88184611e80565b905092915050565b60e082016000820151611f166000850182611d94565b506020820151611f296020850182611da3565b506040820151611f3c6040850182611d94565b506060820151611f4f6060850182611d94565b506080820151611f626080850182611da3565b5060a0820151611f7560a0850182611da3565b5060c0820151611f8860c0850182611dbe565b50505050565b600060e082019050611fa36000830184611f00565b92915050565b611fb281611c14565b82525050565b6000602082019050611fcd6000830184611fa9565b92915050565b600081519050611fe281611ca9565b92915050565b600060208284031215611ffe57611ffd611c0f565b5b600061200c84828501611fd3565b91505092915050565b7f4e487b7100000000000000000000000000000000000000000000000000000000600052601160045260246000fd5b600061204f82611c14565b915061205a83611c14565b925082820190508082111561207257612071612015565b5b92915050565b600061208382611c14565b91507fffffffffffffffffffffffffffffffffffffffffffffffffffffffffffffffff82036120b5576120b4612015565b5b600182019050919050565b6120c981611c97565b82525050565b60006060820190506120e46000830186611fa9565b6120f160208301856120c0565b6120fe60408301846120c0565b949350505050565b600060608201905061211b60008301866120c0565b61212860208301856120c0565b6121356040830184611fa9565b949350505050565b600061214882611c14565b91506000820361215b5761215a612015565b5b600182039050919050565b7f4e487b7100000000000000000000000000000000000000000000000000000000600052604160045260246000fd5b7f4e487b7100000000000000000000000000000000000000000000000000000000600052603260045260246000fdfea2646970667358221220cd8368a728e98c529e76f55add35442c957220a5d5609e06b2ed2b5edbd59af864736f6c63430008180033",
  "linkReferences": {},
  "deployedLinkReferences": {}
}